:020000040800F2
:1000000000280020CD130008B5120008BB1200081C
:10001000C1120008C7120008CD120008000000003D
:10002000000000000000000000000000D3120008E3
:10003000DF12000800000000EB120008F7120008B1
:1000400015140008151400081514000815140008EC
:1000500015140008151400081514000815140008DC
:1000600015140008151400081514000815140008CC
:1000700015140008151400081514000815140008BC
:1000800015140008151400081514000815140008AC
:10009000151400081514000815140008151400089C
:1000A000151400081514000815140008151400088C
:1000B00005130008151400080000000015140008BE
:1000C00015140008000000000000000015140008CE
:1000D00000000000151400081514000800000000BE
:1000E000151400081514000815140008000000007D
:1000F0000000000000000000000000000000000000
:0C01000000000000000000005FF808F1A3
:10010C0010B5054C237833B9044B13B10448AFF345
:10011C0000800123237010BD1C0000200000000093
:10012C009029000808B5034B1BB103490348AFF3F2
:10013C00008008BD0000000020000020902900086D
:10014C0080B400AF0C4B1E221A600C4B05221A60B7
:10015C000B4B19221A60084B1B680A4A1360074B99
:10016C001B68094A1360064B1B68084A136000BFE2
:10017C00BD4680BC704700BF80000020900000206E
:10018C008800002094000020840000208C000020B7
:10019C0080B500AF164B1B78002B02D0012B18D06A
:1001AC0024E0002000F092F90346002B1BD0104BEA
:1001BC0001221A700F4B1B6801330E4A13600D4B52
:1001CC001B68042B0FDD0B4B01221A6000F06CFB3B
:1001DC0009E0002000F07AF90346002B05D1044B0E
:1001EC0000221A7001E000BF00E000BF00BF80BD1C
:1001FC00380000200000002080B400AF1E4B1B68AC
:10020C00042B20D0042B2BDC022B02D0032B0DD083
:10021C0026E01A4B1B680133184A1360174B1B68F6
:10022C00632B1FDD154B00221A601BE0144B1B685F
:10023C000133134A1360124B1B68632B14DD104BF4
:10024C0000221A6010E00F4B1B6801330D4A13603B
:10025C000C4B1B68632B09DD0A4B00221A6005E06E
:10026C0000BF04E000BF02E000BF00E000BF00BF21
:10027C00BD4680BC704700BF0000002094000020E9
:10028C00840000208C00002080B483B000AF0023D9
:10029C007B602B4B1B68042B34D0042B49DC022BCA
:1002AC0002D0032B17D044E0264B1A68264B1B6850
:1002BC00D31A7B60234B1B68234A1360234B1A68A9
:1002CC007B681344214A1360214B1A687B681344E2
:1002DC001F4A13602EE01F4B1A681F4B1B68D31A62
:1002EC007B601C4B1B681C4A1360174B1A687B689D
:1002FC001344154A1360134B1A687B681344114A54
:10030C00136017E0124B1A68104B1B68D31A7B60F2
:10031C000F4B1B680D4A13600C4B1A687B68134417
:10032C000A4A13600A4B1A687B681344084A136024
:10033C0000E000BF00BF0C37BD4680BC704700BF5B
:10034C000000002094000020800000208800002085
:10035C008C000020840000209000002080B500AFAD
:10036C00344B5B78022B27D0022B3ADC002B02D0CB
:10037C00012B0CD035E0012000F0A8F80346002B2F
:10038C0031D02C4B01225A70FFF736FF2BE00120A5
:10039C0000F09CF80346002B02D1264B00225A7029
:1003AC00012000F0ADF80346002B1ED0214B022299
:1003BC005A70FFF721FF18E0012000F087F8034680
:1003CC00002B02D11B4B00225A70012000F0B2F816
:1003DC000346002B0BD0012000F0C6F8FFF70CFFF2
:1003EC0005E000BF04E000BF02E000BF00E000BF7A
:1003FC00104B9B78002B02D0012B0CD018E0022064
:10040C0000F064F80346002B0FD00A4B01229A70BF
:10041C00FFF73AFF09E0022000F058F80346002BE2
:10042C0005D1044B00229A7001E000BF00E000BF30
:10043C0000BF80BD3800002080B483B000AF002323
:10044C007B602AE0194A7B68134401221A70184A0F
:10045C007B68134401221A70164A7B6813440122EC
:10046C001A70154A7B68134401221A70134A7B6870
:10047C00134400221A70124A7B68134400221A702B
:10048C00104A7B68002122F813100F4A7B68002168
:10049C0022F813107B6801337B607B68022BD1DD63
:1004AC0000BF00BF0C37BD4680BC70473C0000202D
:1004BC004000002044000020480000204C00002098
:1004CC0050000020540000205C00002080B483B059
:1004DC0000AF0346FB71FB79022B01D9002307E027
:1004EC00FB79064AD35C002B0CBF01230023DBB243
:1004FC0018460C37BD4680BC704700BF3C0000203E
:10050C0080B483B000AF0346FB71FB79022B01D999
:10051C00002307E0FB79064AD35C012B0CBF0123B7
:10052C000023DBB218460C37BD4680BC704700BFB9
:10053C004C00002080B483B000AF0346FB71FB7904
:10054C00022B01D9002307E0FB79064AD35C012B6F
:10055C000CBF01230023DBB218460C37BD4680BC10
:10056C00704700BF5000002080B483B000AF03463A
:10057C00FB71FB79034A0021D15400BF0C37BD46F7
:10058C0080BC70475000002080B582B000AF78600E
:10059C007B68092B00F2808101A252F823F000BF86
:1005AC00D50500081D06000865060008AD06000804
:1005BC00F50600083D07000885070008CD07000870
:1005CC00150800085D08000801220121B54801F05A
:1005DC0007FA01220221B34801F002FA0122042198
:1005EC00B04801F0FDF901220821AE4801F0F8F9FC
:1005FC0001221021AB4801F0F3F901222021A94876
:10060C0001F0EEF900224021A64801F0E9F944E19D
:10061C0000220121A34801F0E3F901220221A148A3
:10062C0001F0DEF9012204219E4801F0D9F90022E3
:10063C0008219C4801F0D4F900221021994801F0BE
:10064C00CFF900222021974801F0CAF9002240215D
:10065C00944801F0C5F920E101220121914801F0F3
:10066C00BFF9012202218F4801F0BAF900220421BE
:10067C008C4801F0B5F9012208218A4801F0B0F943
:10068C0001221021874801F0ABF900222021854876
:10069C0001F0A6F901224021824801F0A1F9FCE009
:1006AC00012201217F4801F09BF9012202217D48A2
:1006BC0001F096F9012204217A4801F091F9012206
:1006CC000821784801F08CF900221021754801F0BE
:1006DC0087F900222021734801F082F90122402180
:1006EC00704801F07DF9D8E0002201216D4801F03D
:1006FC0077F9012202216B4801F072F901220421E1
:10070C00684801F06DF900220821664801F068F98B
:10071C0000221021634801F063F901222021614875
:10072C0001F05EF9012240215E4801F059F9B4E074
:10073C00012201215B4801F053F9002202215948A2
:10074C0001F04EF901220421564801F049F9012229
:10075C000821544801F044F900221021514801F0BD
:10076C003FF9012220214F4801F03AF901224021A2
:10077C004C4801F035F990E001220121494801F083
:10078C002FF900220221474801F02AF90122042105
:10079C00444801F025F901220821424801F020F9D2
:1007AC00012210213F4801F01BF9012220213D4874
:1007BC0001F016F9012240213A4801F011F96CE0E0
:1007CC0001220121374801F00BF9012202213548A1
:1007DC0001F006F901220421324801F001F900224E
:1007EC000821304801F0FCF8002210212D4801F0BE
:1007FC00F7F8002220212B4801F0F2F800224021CA
:10080C00284801F0EDF848E001220121254801F0CB
:10081C00E7F801220221234801F0E2F80122042129
:10082C00204801F0DDF8012208211E4801F0D8F81B
:10083C00012210211B4801F0D3F801222021194874
:10084C0001F0CEF801224021164801F0C9F824E04D
:10085C0001220121134801F0C3F8012202211148A1
:10086C0001F0BEF8012204210E4801F0B9F8012272
:10087C0008210C4801F0B4F800221021094801F0BD
:10088C00AFF801222021074801F0AAF801224021EB
:10089C00044801F0A5F800E000BF00BF0837BD46D2
:1008AC0080BD00BF0008014080B400AF084B1B683E
:1008BC00084A1360084B1B68084A1360084B002257
:1008CC001A70084B02221A7000BFBD4680BC7047DC
:1008DC008000002004000020880000200800002078
:1008EC00620000200C00002080B500AFAB4B1B68F1
:1008FC00013BAA4A1360AA4B1B68013BA84A136030
:10090C00A84B1B78022B69D0022B00F39880002B8C
:10091C0002D0012B31D092E001224FF48071A24819
:10092C0001F05EF800224FF400719F4801F058F876
:10093C0000224FF480619C4801F052F8974B1B68E1
:10094C00002B7EDA994B1B68013B944A1360954B44
:10095C0002221A7000224FF48071934801F040F883
:10096C0000224FF40071904801F03AF801224FF444
:10097C0080618D4801F034F863E000224FF48071FF
:10098C00894801F02DF801224FF40071864801F0DE
:10099C0027F800224FF48061834801F021F87F4B47
:1009AC001B68002B4FDA824B1B68013B7B4A1360A0
:1009BC007C4B00221A7001224FF480717A4801F0AE
:1009CC000FF800224FF40071774801F009F800226B
:1009DC004FF48061744801F003F834E000224FF4C6
:1009EC008071714800F0FCFF00224FF400716E48DA
:1009FC0000F0F6FF01224FF480616B4800F0F0FF2D
:100A0C00664B1B68002B20DA6A4B1B68013B634A60
:100A1C001360644B01221A7000224FF480716248FB
:100A2C0000F0DEFF01224FF400715F4800F0D8FFA8
:100A3C0000224FF480615C4800F0D2FF05E000BF5B
:100A4C0004E000BF02E000BF00E000BF5A4B1B787F
:100A5C00022B69D0022B00F39880002B02D0012BC3
:100A6C0031D092E001224FF400614F4800F0B8FF02
:100A7C0000224FF480514C4800F0B2FF00224FF49A
:100A8C000051494800F0ACFF454B1B68002B7EDA47
:100A9C00464B1B68013B424A1360474B02221A70BB
:100AAC0000224FF40061404800F09AFF00224FF4FE
:100ABC0080513D4800F094FF01224FF400513A4818
:100ACC0000F08EFF63E000224FF40061364800F026
:100ADC0087FF01224FF48051334800F081FF002240
:100AEC004FF40051304800F07BFF2D4B1B68002B5E
:100AFC004FDA2F4B1B68013B294A13602E4B002207
:100B0C001A7001224FF40061274800F069FF00229F
:100B1C004FF48051244800F063FF00224FF4005141
:100B2C00214800F05DFF34E000224FF400611E48C4
:100B3C0000F056FF00224FF480511B4800F050FF8C
:100B4C0001224FF40051184800F04AFF144B1B6867
:100B5C00002B20DA174B1B68013B114A1360164B14
:100B6C0001221A7000224FF400610F4800F038FF88
:100B7C0001224FF480510C4800F032FF00224FF458
:100B8C000051094800F02CFF05E000BF04E000BF55
:100B9C0002E000BF00E000BF00BF80BD04000020E9
:100BAC000800002062000020000C0140880000209A
:100BBC0080000020900000200C00002080B400AFCA
:100BCC00104B1B68013B032B16D801A252F823F0E3
:100BDC00ED0B0008F30B0008F90B0008FF0B0008E5
:100BEC00094B1B680AE0094B1B6807E0084B1B68A4
:100BFC0004E0084B1B6801E000BF00231846BD460B
:100C0C0080BC7047000000200400002094000020ED
:100C1C00840000208C00002080B400AF104B1B68B7
:100C2C00013B032B16D801A252F823F0490C000803
:100C3C004F0C0008550C00085B0C0008094B1B6896
:100C4C000AE0094B1B6807E0084B1B6804E0084BE3
:100C5C001B6801E000BF00231846BD4680BC7047EE
:100C6C0000000020080000209400002084000020D8
:100C7C008C00002080B500AF524B1B68013B032B4E
:100C8C0000F2958001A252F823F000BFA90C0008D5
:100C9C00BF0C0008130D0008670D00084A4B1B68B9
:100CAC00012B40F08680FA2000F036FBFFF71CFE8B
:100CBC007FE0454B1B68012B7DD1C82000F02CFB3D
:100CCC004FF48071414800F0A3FE4FF400613F489F
:100CDC0000F09EFE00224FF400713C4800F080FEB4
:100CEC0000224FF48061394800F07AFE00224FF464
:100CFC008051364800F074FE00224FF40051334806
:100D0C0000F06EFE57E0304B1B68012B55D1C8200C
:100D1C0000F002FB4FF400712C4800F079FE4FF408
:100D2C0080512A4800F074FE00224FF4807127484D
:100D3C0000F056FE00224FF48061244800F050FE73
:100D4C0000224FF40061214800F04AFE00224FF4CB
:100D5C0000511E4800F044FE2FE01B4B1B68012B7A
:100D6C002DD1C82000F0D8FA4FF48061174800F05C
:100D7C004FFE4FF40051154800F04AFE00224FF48C
:100D8C000071124800F02CFE00224FF480710F48C5
:100D9C0000F026FE00224FF480510C4800F020FE9B
:100DAC0000224FF40061094800F01AFE07E000BF72
:100DBC0006E000BF04E000BF02E000BF00E000BF9F
:100DCC0000BF80BD000000206C000020000C014022
:100DDC0080B500AF7E4B1B68042B00F2F68001A29D
:100DEC0052F823F0050E0008610E0008C70E00082B
:100DFC00230F0008890F000801224FF48051754819
:100E0C0000F0EEFD01224FF40061724800F0E8FDA5
:100E1C0001224FF480616F4800F0E2FD01224FF493
:100E2C0000716C4800F0DCFD00224FF480716948C1
:100E3C0000F0D6FDFFF7C2FE0346674A82FB0312A1
:100E4C009210DB17D31A1846FFF79EFB604B01225A
:100E5C001A60BBE001224FF480715E4800F0C0FDC7
:100E6C0001224FF480515B4800F0BAFD01224FF48F
:100E7C000061584800F0B4FD01224FF480615548E0
:100E8C0000F0AEFD00224FF40071524800F0A8FDB6
:100E9C00FFF794FE0146504B83FB01239A10CB17AE
:100EAC00D21A13469B0013445B00CA1A1046FFF774
:100EBC006BFB474B02221A6088E001224FF4007151
:100ECC00444800F08DFD01224FF48071414800F040
:100EDC0087FD01224FF480513E4800F081FD012234
:100EEC004FF400613B4800F07BFD00224FF4806121
:100EFC00384800F075FDFFF78FFE0346364A82FB3B
:100F0C0003129210DB17D31A1846FFF73DFB304B38
:100F1C0003221A605AE001224FF480612D4800F040
:100F2C005FFD01224FF400712A4800F059FD0122A7
:100F3C004FF48071274800F053FD01224FF480518B
:100F4C00244800F04DFD00224FF40061214800F0D0
:100F5C0047FDFFF761FE01461F4B83FB01239A10EF
:100F6C00CB17D21A13469B0013445B00CA1A1046C7
:100F7C00FFF70AFB164B04221A6027E001224FF4FC
:100F8C000061144800F02CFD01224FF480611148DF
:100F9C0000F026FD01224FF400710E4800F020FDF8
:100FAC0001224FF480710B4800F01AFD00224FF41F
:100FBC008051084800F014FD084B1B681846FFF7D9
:100FCC00E3FA034B00221A6000E000BF00BF80BDB3
:100FDC00640000200008014067666666000000207F
:100FEC0080B500AF00F012FA00F024F800F0AAF877
:100FFC0000F05CF8FFF720FAFFF7A2F8012000F0F0
:10100C008BF9012000F0A4F9012000F0BDF9FFF7E5
:10101C00BFF8074B1B68012B04D1FFF7D9FE012049
:10102C0000F096F9FFF726FEFFF798F9EFE700BFFF
:10103C007400002080B590B000AF07F1180328228F
:10104C000021184601F096FC3B1D00221A605A60E4
:10105C009A60DA601A610223BB610123BB62102320
:10106C00FB6200237B6307F11803184600F0EAFCCF
:10107C000346002B01D000F0BBF80F237B6000234C
:10108C00BB600023FB6000233B6100237B613B1DA5
:10109C000021184600F056FF0346002B01D000F04B
:1010AC00A7F800BF4037BD4680BD000080B586B0B4
:1010BC0000AF07F1080300221A605A609A60DA60E8
:1010CC003B4600221A605A601D4B4FF080421A605A
:1010DC001B4B41F63F725A60194B00229A60184B19
:1010EC000922DA60164B00221A61154B00229A6114
:1010FC00134801F083F80346002B01D000F078F878
:10110C004FF48053BB6007F1080319460C4801F0FB
:10111C00B4F90346002B01D000F06AF800233B60C1
:10112C0000237B603B461946054801F095FB0346BE
:10113C00002B01D000F05CF800BF1837BD4680BD15
:10114C009800002080B586B000AF07F1080300229C
:10115C001A605A609A60DA60224B9B69214A43F00C
:10116C00040393611F4B9B6903F004037B607B6852
:10117C001C4B9B691B4A43F008039361194B9B69F9
:10118C0003F008033B603B68002241F6FF711648F0
:10119C0000F026FC002243F66771144800F020FC96
:1011AC0041F6FF73BB600123FB6000233B6102230C
:1011BC007B6107F1080319460B4800F097FA43F6D8
:1011CC006773BB600123FB6000233B6102237B61DF
:1011DC0007F108031946054800F088FA00BF1837D4
:1011EC00BD4680BD0010024000080140000C0140CB
:1011FC0080B400AF72B600BFFEE7000080B485B0CB
:10120C0000AF154B9B69144A43F001039361124BD9
:10121C009B6903F00103BB60BB680F4BDB690E4A93
:10122C0043F08053D3610C4BDB6903F080537B603C
:10123C007B680A4B5B68FB60FB6823F0E063FB6038
:10124C00FB6843F08063FB60044AFB68536000BF9B
:10125C001437BD4680BC70470010024000000140AE
:10126C0080B584B000AF78607B681B68B3F1804FA9
:10127C0013D10C4BDB690B4A43F00103D361094BCF
:10128C00DB6903F00103FB60FB68002200211C20DA
:10129C0000F0F5F91C2000F00EFA00BF1037BD4627
:1012AC0080BD00BF0010024080B400AFFEE780B4E8
:1012BC0000AFFEE780B400AFFEE780B400AFFEE7FE
:1012CC0080B400AFFEE780B400AF00BFBD4680BC69
:1012DC00704780B400AF00BFBD4680BC704780B47F
:1012EC0000AF00BFBD4680BC704780B500AF00F0BA
:1012FC00D3F800BF80BD000080B500AF024800F0FD
:10130C00CCFF00BF80BD00BF9800002080B400AFB0
:10131C0000BFBD4680BC704780B483B000AF78601E
:10132C007B68084A82FB03129210DB17D31A064A19
:10133C001360064B00221A6000BF0C37BD4680BC00
:10134C00704700BF67666666680000206C0000206E
:10135C0080B483B000AF78607B68084A82FB0312CC
:10136C009210DB17D31A064A1360064B00221A6040
:10137C0000BF0C37BD4680BC704700BF6766666611
:10138C00700000207400002080B483B000AF78603F
:10139C007B68084A82FB03129210DB17D31A064AA9
:1013AC001360064B00221A6000BF0C37BD4680BC90
:1013BC00704700BF67666666780000207C000020DE
:1013CC00FFF7A4FF0B480C490C4A002302E0D45849
:1013DC00C4500433C4188C42F9D3094A094C002375
:1013EC0001E013600432A242FBD301F09FFAFFF735
:1013FC00F7FD7047000000201C000020D4290008D5
:10140C001C000020E4000020FEE7000080B500AFC7
:10141C00084B1B68074A43F010031360032000F0CD
:10142C0023F90F2000F008F8FFF7E8FE0023184618
:10143C0080BD00BF0020024080B582B000AF786054
:10144C00124B1A68124B1B7819464FF47A73B3FB84
:10145C00F1F3B2FBF3F3184600F03BF90346002B13
:10146C0001D001230EE07B680F2B0AD8002279688B
:10147C004FF0FF3000F003F9064A7B68136000233D
:10148C0000E0012318460837BD4680BD100000203F
:10149C00180000201400002080B400AF054B1B780E
:1014AC001A46054B1B681344034A136000BFBD4624
:1014BC0080BC704718000020E000002080B400AF12
:1014CC00024B1B681846BD4680BC7047E0000020EC
:1014DC0080B485B000AF78607B6803F00703FB60D5
:1014EC000C4BDB68BB60BA684FF6FF031340BB6064
:1014FC00FB681A02BB68134343F0BF6343F4003329
:10150C00BB60044ABB68D36000BF1437BD4680BCC7
:10151C00704700BF00ED00E080B400AF044BDB6807
:10152C001B0A03F007031846BD4680BC704700BF7A
:10153C0000ED00E080B483B000AF0346FB7197F977
:10154C000730002B0BDBFB7903F01F02064997F9E0
:10155C0007305B09012000FA02F241F8232000BF9A
:10156C000C37BD4680BC704700E100E080B483B00E
:10157C0000AF03463960FB7197F90730002B0ADB8B
:10158C003B68DAB20C4997F907301201D2B20B441E
:10159C0083F800230AE03B68DAB20849FB7903F0D0
:1015AC000F03043B1201D2B20B441A7600BF0C3766
:1015BC00BD4680BC704700BF00E100E000ED00E0DC
:1015CC0080B489B000AFF860B9607A60FB6803F052
:1015DC000703FB61FB69C3F10703042B28BF04233A
:1015EC00BB61FB690433062B02D9FB69033B00E0AA
:1015FC0000237B614FF0FF32BB6902FA03F3DA433D
:10160C00BB681A407B699A404FF0FF317B6901FA45
:10161C0003F3D9437B680B40134318462437BD466C
:10162C0080BC704780B582B000AF78607B68013BAE
:10163C00B3F1807F01D301230FE00A4A7B68013BA1
:10164C0053600F214FF0FF30FFF790FF054B002246
:10165C009A60044B07221A60002318460837BD46CF
:10166C0080BD00BF10E000E080B582B000AF7860B4
:10167C007868FFF72DFF00BF0837BD4680BD80B5E9
:10168C0086B000AF0346B9607A60FB7300237B61C0
:10169C00FFF742FF78617A68B9687869FFF790FFC5
:1016AC00024697F90F3011461846FFF75FFF00BF4F
:1016BC001837BD4680BD80B582B000AF0346FB71C4
:1016CC0097F907301846FFF735FF00BF0837BD46BE
:1016DC0080BD80B582B000AF78607868FFF7A2FF5C
:1016EC00034618460837BD4680BD000080B48BB059
:1016FC0000AF7860396000237B6200233B6248E1D5
:10170C0001227B6A02FA03F3FB613B681B68FA69EE
:10171C001340BB61BA69FB699A4240F037813B6860
:10172C005B68A34A93425ED0A14A934275D8A14A02
:10173C00934258D09F4A93426FD89F4A934252D0BB
:10174C009D4A934269D89D4A93424CD09B4A9342FE
:10175C0063D89B4A934246D0994A93425DD8122B48
:10176C002AD8122B59D801A252F823F0F3170008EB
:10177C00CD170008DF1700082118000827180008EB
:10178C002718000827180008271800082718000831
:10179C002718000827180008271800082718000821
:1017AC002718000827180008271800082718000811
:1017BC00D5170008E9170008824A934213D02CE091
:1017CC003B68DB683B6229E03B68DB6804333B62C7
:1017DC0024E03B68DB6808333B621FE03B68DB6856
:1017EC000C333B621AE03B689B68002B02D104234C
:1017FC003B6213E03B689B68012B05D108233B62DD
:10180C007B68FA691A6109E008233B627B68FA6914
:10181C005A6103E000233B6200E000BFBB69FF2B71
:10182C0001D87B6801E07B6804337B61BB69FF2BCB
:10183C0002D87B6A9B0002E07B6A083B9B003B6101
:10184C007B691A680F213B6901FA03F3DB431A40E9
:10185C00396A3B6901FA03F31A437B691A603B68E6
:10186C005B6803F08053002B00F09080564B9B6913
:10187C00554A43F001039361534B9B6903F00103F9
:10188C00BB60BB68514A7B6A9B08023352F8233019
:10189C00FB607B6A03F003039B000F2202FA03F345
:1018AC00DB43FA681340FB607B68494A93420DD0D6
:1018BC007B68484A934207D07B68474A934201D1E0
:1018CC00022304E0032302E0012300E000237A6AF0
:1018DC0002F0030292009340FA681343FB603B4909
:1018EC007B6A9B080233FA6841F823203B685B68EB
:1018FC0003F48013002B06D0384B9A683749BB6928
:10190C0013438B6006E0354B9A68BB69DB43334964
:10191C0013408B603B685B6803F40013002B06D00C
:10192C002E4BDA682D49BB691343CB6006E02B4B79
:10193C00DA68BB69DB4329491340CB603B685B68C1
:10194C0003F40033002B06D0244B5A682349BB699F
:10195C0013434B6006E0214B5A68BB69DB431F49BC
:10196C0013404B603B685B6803F48033002B06D05C
:10197C001A4B1A681949BB6913430B6006E0174BE5
:10198C001A68BB69DB43154913400B607B6A013352
:10199C007B623B681A687B6A22FA03F3002B7FF4A4
:1019AC00AFAE00BF00BF2C37BD4680BC704700BF38
:1019BC000000321000003110000022100000211035
:1019CC000000121000001110001002400000014035
:1019DC0000080140000C01400010014000040140CF
:1019EC0080B483B000AF78600B467B8013467B706D
:1019FC007B78002B03D07A887B681A6103E07B88A4
:101A0C001A047B681A6100BF0C37BD4680BC704756
:101A1C0080B485B000AF78600B467B807B68DB6858
:101A2C00FB607A88FB6813401A04FB68D9437B88F7
:101A3C000B401A437B681A6100BF1437BD4680BC4B
:101A4C007047000080B586B000AF78607B68002BD3
:101A5C0001D101236CE27B681B6803F00103002BAE
:101A6C0000F08780924B5B6803F00C03042B0CD0C6
:101A7C008F4B5B6803F00C03082B12D18C4B5B680B
:101A8C0003F48033B3F5803F0BD1894B1B6803F40F
:101A9C000033002B6CD07B685B68002B68D1012372
:101AAC0046E27B685B68B3F5803F06D1804B1B68D0
:101ABC007F4A43F4803313602EE07B685B68002B15
:101ACC000CD17B4B1B687A4A23F480331360784B20
:101ADC001B68774A23F4802313601DE07B685B68E6
:101AEC00B3F5A02F0CD1724B1B68714A43F48023C1
:101AFC0013606F4B1B686E4A43F4803313600BE02A
:101B0C006B4B1B686A4A23F480331360684B1B6869
:101B1C00674A23F4802313607B685B68002B13D027
:101B2C00FFF7CCFC386108E0FFF7C8FC02463B69C4
:101B3C00D31A642B01D90323FAE15D4B1B6803F420
:101B4C000033002BF0D014E0FFF7B8FC386108E04C
:101B5C00FFF7B4FC02463B69D31A642B01D903236B
:101B6C00E6E1534B1B6803F40033002BF0D100E08B
:101B7C0000BF7B681B6803F00203002B63D04C4B47
:101B8C005B6803F00C03002B0BD0494B5B6803F034
:101B9C000C03082B1CD1464B5B6803F48033002BE1
:101BAC0016D1434B1B6803F00203002B05D07B6856
:101BBC001B69012B01D00123BAE13D4B1B6823F0BB
:101BCC00F8027B685B69DB00394913430B603AE030
:101BDC007B681B69002B20D0364B01221A60FFF763
:101BEC006DFC386108E0FFF769FC02463B69D31ACB
:101BFC00022B01D903239BE12D4B1B6803F002033D
:101C0C00002BF0D02A4B1B6823F0F8027B685B6931
:101C1C00DB00274913430B6015E0264B00221A60AA
:101C2C00FFF74CFC386108E0FFF748FC02463B69C3
:101C3C00D31A022B01D903237AE11D4B1B6803F045
:101C4C000203002BF0D17B681B6803F00803002B08
:101C5C003AD07B689B69002B19D0174B01221A6074
:101C6C00FFF72CFC386108E0FFF728FC02463B69C3
:101C7C00D31A022B01D903235AE10D4B5B6A03F0F3
:101C8C000203002BF0D0012000F09AFA1CE00A4B62
:101C9C0000221A60FFF712FC38610FE0FFF70EFC10
:101CAC0002463B69D31A022B08D9032340E100BF3B
:101CBC000010024000004242800442429E4B5B6A8C
:101CCC0003F00203002BE9D17B681B6803F00403CB
:101CDC00002B00F0A6800023FB75974BDB6903F00B
:101CEC008053002B0DD1944BDB69934A43F0805306
:101CFC00D361914BDB6903F08053BB60BB6801235C
:101D0C00FB758E4B1B6803F48073002B18D18B4B27
:101D1C001B688A4A43F480731360FFF7CFFB38616A
:101D2C0008E0FFF7CBFB02463B69D31A642B01D9C1
:101D3C000323FDE0814B1B6803F48073002BF0D070
:101D4C007B68DB68012B06D17B4B1B6A7A4A43F01C
:101D5C00010313622DE07B68DB68002B0CD1764B02
:101D6C001B6A754A23F001031362734B1B6A724A98
:101D7C0023F0040313621CE07B68DB68052B0CD199
:101D8C006D4B1B6A6C4A43F0040313626A4B1B6A6B
:101D9C00694A43F0010313620BE0674B1B6A664A06
:101DAC0023F001031362644B1B6A634A23F00403A0
:101DBC0013627B68DB68002B15D0FFF77FFB386163
:101DCC000AE0FFF77BFB02463B69D31A41F28832EB
:101DDC00934201D90323ABE0574B1B6A03F0020378
:101DEC00002BEED014E0FFF769FB38610AE0FFF737
:101DFC0065FB02463B69D31A41F28832934201D902
:101E0C00032395E04C4B1B6A03F00203002BEED12D
:101E1C00FB7D012B05D1484BDB69474A23F08053EE
:101E2C00D3617B68DB69002B00F08180424B5B68DF
:101E3C0003F00C03082B61D07B68DB69022B46D1C5
:101E4C003F4B00221A60FFF739FB386108E0FFF7BF
:101E5C0035FB02463B69D31A022B01D9032367E0F9
:101E6C00354B1B6803F00073002BF0D17B681B6AA9
:101E7C00B3F5803F08D1304B5B6823F400327B68AC
:101E8C009B682D4913434B602B4B5B6823F47412F6
:101E9C007B68196A7B685B6A0B43274913434B6069
:101EAC00274B01221A60FFF709FB386108E0FFF7A6
:101EBC0005FB02463B69D31A022B01D9032337E0F9
:101ECC001D4B1B6803F00073002BF0D02FE01C4B54
:101EDC0000221A60FFF7F2FA386108E0FFF7EEFA19
:101EEC0002463B69D31A022B01D9032320E0124B83
:101EFC001B6803F00073002BF0D118E07B68DB69E2
:101F0C00012B01D1012313E00B4B5B68FB60FB68D9
:101F1C0003F480327B681B6A9A4206D1FB6803F497
:101F2C0070127B685B6A9A4201D0012300E00023A7
:101F3C0018461837BD4680BD0010024000700040A6
:101F4C006000424280B584B000AF786039607B6835
:101F5C00002B01D10123D0E06A4B1B6803F007036F
:101F6C003A689A4210D9674B1B6823F007026549FF
:101F7C003B6813430B60634B1B6803F007033A6821
:101F8C009A4201D00123B8E07B681B6803F002037E
:101F9C00002B20D07B681B6803F00403002B05D0BA
:101FAC00594B5B68584A43F4E06353607B681B6889
:101FBC0003F00803002B05D0534B5B68524A43F4E3
:101FCC0060535360504B5B6823F0F0027B689B6856
:101FDC004D4913434B607B681B6803F00103002BD6
:101FEC0040D07B685B68012B07D1474B1B6803F41F
:101FFC000033002B15D101237FE07B685B68022B3B
:10200C0007D1414B1B6803F00073002B09D101234E
:10201C0073E03D4B1B6803F00203002B01D101233D
:10202C006BE0394B5B6823F003027B685B683649D5
:10203C0013434B60FFF742FAF8600AE0FFF73EFAF1
:10204C000246FB68D31A41F28832934201D903232A
:10205C0053E02D4B5B6803F00C027B685B689B00C4
:10206C009A42EBD1274B1B6803F007033A689A425C
:10207C0010D2244B1B6823F0070222493B68134300
:10208C000B60204B1B6803F007033A689A4201D09F
:10209C00012332E07B681B6803F00403002B08D09B
:1020AC00194B5B6823F4E0627B68DB6816491343C9
:1020BC004B607B681B6803F00803002B09D0124BA4
:1020CC005B6823F460527B681B69DB000E49134389
:1020DC004B6000F021F802460B4B5B681B0903F0C8
:1020EC000F030A49CB5C22FA03F3094A1360094B2C
:1020FC001B681846FFF7A0F9002318461037BD4699
:10210C0080BD00BF0020024000100240A82900083A
:10211C00100000201400002080B487B000AF002312
:10212C00FB600023BB6000237B6100237B600023EA
:10213C003B611E4B5B68FB60FB6803F00C03042BDC
:10214C0002D0082B03D027E0194B3B6127E0FB683A
:10215C009B0C03F00F03174AD35C7B60FB6803F402
:10216C008033002B10D0114B5B685B0C03F0010328
:10217C00114AD35CBB607B680D4A02FB03F2BB685F
:10218C00B2FBF3F37B6104E07B680C4A02FB03F3C4
:10219C007B617B693B6102E0054B3B6100BF3B69A6
:1021AC0018461C37BD4680BC704700BF001002406B
:1021BC0000127A00B8290008C829000800093D005F
:1021CC0080B485B000AF78600A4B1B680A4AA2FB4A
:1021DC0003235B0A7A6802FB03F3FB6000BFFB6816
:1021EC005A1EFA60002BF9D100BF00BF1437BD4650
:1021FC0080BC704710000020D34D621080B582B0B7
:10220C0000AF78607B68002B01D1012341E07B6833
:10221C0093F83D30DBB2002B06D17B68002283F8AB
:10222C003C207868FFF71CF87B68022283F83D207D
:10223C007B681A687B6804331946104600F012FA62
:10224C007B68012283F846207B68012283F83E20BC
:10225C007B68012283F83F207B68012283F84020B1
:10226C007B68012283F841207B68012283F842209D
:10227C007B68012283F843207B68012283F8442089
:10228C007B68012283F845207B68012283F83D207E
:10229C00002318460837BD4680BD80B584B000AF1A
:1022AC0078607B681B68DB68FB607B681B681B695C
:1022BC00BB60BB6803F00203002B20D0FB6803F06B
:1022CC000203002B1BD07B681B686FF002021A61A3
:1022DC007B6801221A777B681B689B6903F00303F8
:1022EC00002B03D0786800F0A1F905E0786800F0C5
:1022FC0094F9786800F0A3F97B6800221A77BB6820
:10230C0003F00403002B20D0FB6803F00403002B24
:10231C001BD07B681B686FF004021A617B68022279
:10232C001A777B681B689B6903F44073002B03D0FE
:10233C00786800F07BF905E0786800F06EF9786851
:10234C0000F07DF97B6800221A77BB6803F0080364
:10235C00002B20D0FB6803F00803002B1BD07B68FC
:10236C001B686FF008021A617B6804221A777B687D
:10237C001B68DB6903F00303002B03D0786800F0C3
:10238C0055F905E0786800F048F9786800F057F9DD
:10239C007B6800221A77BB6803F01003002B20D057
:1023AC00FB6803F01003002B1BD07B681B686FF0DD
:1023BC0010021A617B6808221A777B681B68DB693C
:1023CC0003F44073002B03D0786800F02FF905E07C
:1023DC00786800F022F9786800F031F97B68002207
:1023EC001A77BB6803F00103002B0CD0FB6803F0D9
:1023FC000103002B07D07B681B686FF001021A6188
:10240C00786800F001F9BB6803F08003002B0CD056
:10241C00FB6803F08003002B07D07B681B686FF010
:10242C0080021A61786800F078FABB6803F0400308
:10243C00002B0CD0FB6803F04003002B07D07B680B
:10244C001B686FF040021A61786800F001F9BB68F4
:10245C0003F02003002B0CD0FB6803F02003002BAF
:10246C0007D07B681B686FF020021A61786800F057
:10247C004BFA00BF1037BD4680BD80B584B000AFAD
:10248C00786039600023FB737B6893F83C30012B38
:10249C0001D10223B4E07B68012283F83C207B68E5
:1024AC00022283F83D207B681B689B68BB60BB687D
:1024BC0023F07703BB60BB6823F47F43BB607B686E
:1024CC001B68BA689A603B681B68B3F5005F3ED026
:1024DC00B3F5005F00F28780B3F5805F00F0868073
:1024EC00B3F5805F7FD8702B1AD0702B7BD8602B04
:1024FC0050D0602B77D8502B3CD0502B73D8402B1E
:10250C0058D0402B6FD8302B64D0302B6BD8202B6D
:10251C0060D0202B67D8002B5CD0102B5AD062E0F7
:10252C007B6818683B6899683B685A683B68DB684D
:10253C0000F073F97B681B689B68BB60BB6843F059
:10254C007703BB607B681B68BA689A604FE07B6856
:10255C0018683B6899683B685A683B68DB6800F010
:10256C005CF97B681B689A687B681B6842F4804244
:10257C009A603CE07B6818683B6859683B68DB688C
:10258C001A4600F0D3F87B681B685021184600F0FF
:10259C002AF92CE07B6818683B6859683B68DB6853
:1025AC001A4600F0F1F87B681B686021184600F0B1
:1025BC001AF91CE07B6818683B6859683B68DB6853
:1025CC001A4600F0B3F87B681B684021184600F0EF
:1025DC000AF90CE07B681A683B681B6819461046C0
:1025EC0000F001F903E00123FB7300E000BF7B68FE
:1025FC00012283F83D207B68002283F83C20FB7B82
:10260C0018461037BD4680BD80B483B000AF7860EB
:10261C0000BF0C37BD4680BC704780B483B000AFA0
:10262C00786000BF0C37BD4680BC704780B483B067
:10263C0000AF786000BF0C37BD4680BC704780B4DB
:10264C0083B000AF786000BF0C37BD4680BC7047CC
:10265C0080B483B000AF786000BF0C37BD4680BC3F
:10266C007047000080B485B000AF786039607B683B
:10267C001B68FB607B682B4A934207D07B68B3F1E5
:10268C00804F03D07B68284A934208D1FB6823F023
:10269C007003FB603B685B68FA681343FB607B6804
:1026AC00204A934207D07B68B3F1804F03D07B68FC
:1026BC001D4A934208D1FB6823F44073FB603B68CE
:1026CC00DB68FA681343FB60FB6823F080023B680D
:1026DC005B691343FB607B68FA681A603B689A6815
:1026EC007B68DA623B681A687B689A627B680D4A81
:1026FC00934203D13B681A697B681A637B68012299
:10270C005A617B681B6903F00103002B05D07B68C1
:10271C001B6923F001027B681A6100BF1437BD46A8
:10272C0080BC7047002C01400004004080B487B08E
:10273C0000AFF860B9607A60FB681B6A7B61FB686C
:10274C001B6A23F00102FB681A62FB689B693B6100
:10275C003B6923F0F0033B617B681B013A6913432F
:10276C003B617B6923F00A037B617A69BB68134385
:10277C007B61FB683A699A61FB687A691A6200BFEF
:10278C001C37BD4680BC704780B487B000AFF86082
:10279C00B9607A60FB681B6A7B61FB681B6A23F07B
:1027AC001002FB681A62FB689B693B613B6923F46E
:1027BC0070433B617B681B033A6913433B617B6944
:1027CC0023F0A0037B61BB681B017A6913437B6117
:1027DC00FB683A699A61FB687A691A6200BF1C3718
:1027EC00BD4680BC704780B485B000AF786039605E
:1027FC007B689B68FB60FB6823F07003FB603A68A6
:10280C00FB68134343F00703FB607B68FA689A602C
:10281C0000BF1437BD4680BC704780B487B000AF92
:10282C00F860B9607A603B60FB689B687B617B6990
:10283C0023F47F437B613B681A027B681A43BB68B5
:10284C0013437A6913437B61FB687A699A6000BF12
:10285C001C37BD4680BC704780B485B000AF786033
:10286C0039607B6893F83C30012B01D1022341E0A5
:10287C007B68012283F83C207B68022283F83D2090
:10288C007B681B685B68FB607B681B689B68BB6034
:10289C00FB6823F07003FB603B681B68FA6813430A
:1028AC00FB607B681B68FA685A607B681B68144A7B
:1028BC00934209D07B681B68B3F1804F04D07B68CE
:1028CC001B68104A93420CD1BB6823F08003BB6099
:1028DC003B685B68BA681343BB607B681B68BA686B
:1028EC009A607B68012283F83D207B68002283F884
:1028FC003C20002318461437BD4680BC704700BFEF
:10290C00002C01400004004080B483B000AF78601C
:10291C0000BF0C37BD4680BC704780B483B000AF9D
:10292C00786000BF0C37BD4680BC704770B5002680
:10293C000C4D0D4C641BA410A64209D100F022F8DA
:10294C0000260A4D0A4C641BA410A64205D170BD8A
:10295C0055F8043B98470136EEE755F8043B984789
:10296C000136F2E7CC290008CC290008CC29000854
:10297C00D029000803460244934200D1704703F863
:10298C00011BF9E7F8B500BFF8BC08BC9E467047C0
:0C299C00F8B500BFF8BC08BC9E467047B0
:1029A80000000000000000000102030406070809F7
:1029B80002030405060708090A0B0C0D0E0F101078
:0429C8000102000008
:0429CC0031010008CD
:0429D0000D010008ED
:1029D400010000001E0000001900000002000000B9
:0C29E40000127A0010000000010000004A
:04000005080013CD0F
:00000001FF
