:020000040800F2
:10000000002800204D1600087D1400088314000805
:10001000891400088F1400089514000800000000DF
:100020000000000000000000000000009B14000819
:10003000A714000800000000B3140008BF14000853
:1000400095160008951600089516000895160008E4
:1000500095160008951600089516000895160008D4
:1000600095160008951600089516000895160008C4
:1000700095160008951600089516000895160008B4
:1000800095160008951600089516000895160008A4
:100090009516000895160008951600089516000894
:1000A0009516000895160008951600089516000884
:1000B000CD140008951600080000000095160008F1
:1000C00095160008000000000000000095160008CA
:1000D00000000000951600089516000800000000BA
:1000E00095160008951600089516000800000000F7
:1000F0000000000000000000000000000000000000
:0C01000000000000000000005FF808F1A3
:10010C0010B5054C237833B9044B13B10448AFF345
:10011C0000800123237010BD1C0000200000000093
:10012C00C42C000808B5034B1BB103490348AFF3BB
:10013C00008008BD0000000020000020C42C000836
:10014C0080B400AF0C4B1E221A600C4B05221A60B7
:10015C000B4B19221A60084B1B680A4A1360074B99
:10016C001B68094A1360064B1B68084A136000BFE2
:10017C00BD4680BC704700BF88000020980000205E
:10018C00900000209C0000208C0000209400002097
:10019C0080B500AF164B1B78002B02D0012B18D06A
:1001AC0024E0002000F046FA0346002B1BD0104B35
:1001BC0001221A700F4B1B6801330E4A13600D4B52
:1001CC001B68042B0FDD0B4B01221A6000F020FC86
:1001DC0009E0002000F02EFA0346002B05D1044B59
:1001EC0000221A7001E000BF00E000BF00BF80BD1C
:1001FC00380000200000002080B400AF1E4B1B68AC
:10020C00042B20D0042B2BDC022B02D0032B0DD083
:10021C0026E01A4B1B680133184A1360174B1B68F6
:10022C00632B1FDD154B00221A601BE0144B1B685F
:10023C000133134A1360124B1B68632B14DD104BF4
:10024C0000221A6010E00F4B1B6801330D4A13603B
:10025C000C4B1B68632B09DD0A4B00221A6005E06E
:10026C0000BF04E000BF02E000BF00E000BF00BF21
:10027C00BD4680BC704700BF000000209C000020E1
:10028C008C0000209400002080B483B000AF0023C9
:10029C007B602B4B1B68042B34D0042B49DC022BCA
:1002AC0002D0032B17D044E0264B1A68264B1B6850
:1002BC00D31A7B60234B1B68234A1360234B1A68A9
:1002CC007B681344214A1360214B1A687B681344E2
:1002DC001F4A13602EE01F4B1A681F4B1B68D31A62
:1002EC007B601C4B1B681C4A1360174B1A687B689D
:1002FC001344154A1360134B1A687B681344114A54
:10030C00136017E0124B1A68104B1B68D31A7B60F2
:10031C000F4B1B680D4A13600C4B1A687B68134417
:10032C000A4A13600A4B1A687B681344084A136024
:10033C0000E000BF00BF0C37BD4680BC704700BF5B
:10034C00000000209C00002088000020900000206D
:10035C00940000208C0000209800002080B500AF95
:10036C00344B5B78022B27D0022B3ADC002B02D0CB
:10037C00012B0CD035E0012000F05CF90346002B7A
:10038C0031D02C4B01225A70FFF736FF2BE00120A5
:10039C0000F050F90346002B02D1264B00225A7074
:1003AC00012000F061F90346002B1ED0214B0222E4
:1003BC005A70FFF721FF18E0012000F03BF90346CB
:1003CC00002B02D11B4B00225A70012000F066F961
:1003DC000346002B0BD0012000F07AF9FFF70CFF3D
:1003EC0005E000BF04E000BF02E000BF00E000BF7A
:1003FC00104B9B78002B02D0012B0CD018E0022064
:10040C0000F018F90346002B0FD00A4B01229A700A
:10041C00FFF73AFF09E0022000F00CF90346002B2D
:10042C0005D1044B00229A7001E000BF00E000BF30
:10043C0000BF80BD3800002080B483B000AF002323
:10044C007B602AE0194A7B68134401221A70184A0F
:10045C007B68134401221A70164A7B6813440122EC
:10046C001A70154A7B68134401221A70134A7B6870
:10047C00134400221A70124A7B68134400221A702B
:10048C00104A7B68002122F813100F4A7B68002168
:10049C0022F813107B6801337B607B68022BD1DD63
:1004AC0000BF00BF0C37BD4680BC70473C0000202D
:1004BC004000002044000020480000204C00002098
:1004CC0050000020540000205C00002080B582B059
:1004DC0000AF00237B6092E04D4A7B68134419788F
:1004EC004C4A7B6813440A461A704B4A7B68134487
:1004FC001978474A7B6813440A461A7001227B68B4
:10050C0002FA03F39BB21946444801F0A9FB0346D7
:10051C001946414A7B6813440A461A703E4A7B6866
:10052C0013441A783A497B680B441B789A4212D1CF
:10053C00384A7B6813441A7835497B680B441B781E
:10054C009A4208D1344A7B6813441978344A7B6840
:10055C0013440A461A70324A7B6813441B78002BEA
:10056C0036D1304A7B6832F81330C72B0AD82D4A63
:10057C007B6832F81330013399B22A4A7B6822F82F
:10058C00131039E0284A7B68134401221A70274A59
:10059C007B6832F81330312B2ED8244A7B6832F822
:1005AC001330013399B2214A7B6822F813101F4A89
:1005BC007B6832F81330312B1ED91C4A7B68002122
:1005CC0022F813101A4A7B68134401221A7013E0A4
:1005DC00144A7B68002122F81310134A7B681344D9
:1005EC0000221A70114A7B68002122F81310104A5D
:1005FC007B68134400221A707B6801337B607B6834
:10060C00022B7FF769AF00BF00BF0837BD4680BD26
:10061C00440000204800002040000020000C014055
:10062C003C000020540000204C0000205C00002006
:10063C005000002080B483B000AF0346FB71FB79FF
:10064C00022B01D9002307E0FB79064AD35C002B6F
:10065C000CBF01230023DBB218460C37BD4680BC0F
:10066C00704700BF3C00002080B483B000AF03464D
:10067C00FB71FB79022B01D9002307E0FB79064AB9
:10068C00D35C012B0CBF01230023DBB218460C37C3
:10069C00BD4680BC704700BF4C00002080B483B0C6
:1006AC0000AF0346FB71FB79022B01D9002307E055
:1006BC00FB79064AD35C012B0CBF01230023DBB270
:1006CC0018460C37BD4680BC704700BF5000002058
:1006DC0080B483B000AF0346FB71FB79034A002161
:1006EC00D15400BF0C37BD4680BC70475000002071
:1006FC0080B582B000AF78607B68092B00F28081F6
:10070C0001A252F823F000BF3D070008850700083E
:10071C00CD070008150800085D080008A5080008AA
:10072C00ED080008350900087D090008C509000816
:10073C0001220121B54801F0AAFA01220221B34895
:10074C0001F0A5FA01220421B04801F0A0FA01221F
:10075C000821AE4801F09BFA01221021AB4801F0B0
:10076C0096FA01222021A94801F091FA0022402199
:10077C00A64801F08CFA44E100220121A34801F0C3
:10078C0086FA01220221A14801F081FA01220421FA
:10079C009E4801F07CFA002208219C4801F077FA6F
:1007AC0000221021994801F072FA0022202197486A
:1007BC0001F06DFA00224021944801F068FA20E122
:1007CC0001220121914801F062FA012202218F4895
:1007DC0001F05DFA002204218C4801F058FA012244
:1007EC0008218A4801F053FA01221021874801F0B0
:1007FC004EFA00222021854801F049FA01224021BD
:10080C00824801F044FAFCE0012201217F4801F00A
:10081C003EFA012202217D4801F039FA012204211D
:10082C007A4801F034FA01220821784801F02FFAB5
:10083C0000221021754801F02AFA00222021734869
:10084C0001F025FA01224021704801F020FAD8E08D
:10085C00002201216D4801F01AFA012202216B4895
:10086C0001F015FA01220421684801F010FA002267
:10087C000821664801F00BFA00221021634801F0B0
:10088C0006FA01222021614801F001FA01224021DF
:10089C005E4801F0FCF9B4E0012201215B4801F053
:1008AC00F6F900220221594801F0F1F90122042144
:1008BC00564801F0ECF901220821544801F0E7F9FF
:1008CC0000221021514801F0E2F9012220214F4869
:1008DC0001F0DDF9012240214C4801F0D8F990E0FB
:1008EC0001220121494801F0D2F900220221474896
:1008FC0001F0CDF901220421444801F0C8F901228C
:10090C000821424801F0C3F9012210213F4801F0AF
:10091C00BEF9012220213D4801F0B9F90122402104
:10092C003A4801F0B4F96CE001220121374801F09A
:10093C00AEF901220221354801F0A9F90122042166
:10094C00324801F0A4F900220821304801F09FF947
:10095C00002210212D4801F09AF9002220212B4869
:10096C0001F095F900224021284801F090F948E067
:10097C0001220121254801F08AF901220221234894
:10098C0001F085F901220421204801F080F90122AF
:10099C0008211E4801F07BF9012210211B4801F0AF
:1009AC0076F901222021194801F071F90122402128
:1009BC00164801F06CF924E001220121134801F0E2
:1009CC0066F901220221114801F061F9012204218A
:1009DC000E4801F05CF9012208210C4801F057F98E
:1009EC0001221021094801F052F901222021074867
:1009FC0001F04DF901224021044801F048F900E0D2
:100A0C0000BF00BF0837BD4680BD00BF00080140D5
:100A1C0080B400AF084B1B68084A1360084B1B6876
:100A2C00084A1360084B00221A70084B02221A70F5
:100A3C0000BFBD4680BC7047880000200400002029
:100A4C009000002008000020620000200C00002014
:100A5C0080B500AFAB4B1B68013BAA4A1360AA4B95
:100A6C001B68013BA84A1360A84B1B78022B69D06A
:100A7C00022B00F39880002B02D0012B31D092E096
:100A8C0001224FF48071A24801F001F900224FF4C9
:100A9C0000719F4801F0FBF800224FF480619C48E4
:100AAC0001F0F5F8974B1B68002B7EDA994B1B680D
:100ABC00013B944A1360954B02221A7000224FF4AA
:100ACC008071934801F0E3F800224FF400719048D4
:100ADC0001F0DDF801224FF480618D4801F0D7F868
:100AEC0063E000224FF48071894801F0D0F80122B4
:100AFC004FF40071864801F0CAF800224FF480616F
:100B0C00834801F0C4F87F4B1B68002B4FDA824BF3
:100B1C001B68013B7B4A13607C4B00221A7001223C
:100B2C004FF480717A4801F0B2F800224FF4007152
:100B3C00774801F0ACF800224FF48061744801F062
:100B4C00A6F834E000224FF48071714801F09FF850
:100B5C0000224FF400716E4801F099F801224FF415
:100B6C0080616B4801F093F8664B1B68002B20DA10
:100B7C006A4B1B68013B634A1360644B01221A7079
:100B8C0000224FF48071624801F081F801224FF489
:100B9C0000715F4801F07BF800224FF480615C48E3
:100BAC0001F075F805E000BF04E000BF02E000BFF3
:100BBC0000E000BF5A4B1B78022B69D0022B00F3CC
:100BCC009880002B02D0012B31D092E001224FF4FF
:100BDC0000614F4801F05BF800224FF480514C4803
:100BEC0001F055F800224FF40051494801F04FF83C
:100BFC00454B1B68002B7EDA464B1B68013B424A77
:100C0C001360474B02221A7000224FF400614048D7
:100C1C0001F03DF800224FF480513D4801F037F8C7
:100C2C0001224FF400513A4801F031F863E0002200
:100C3C004FF40061364801F02AF801224FF480513C
:100C4C00334801F024F800224FF40051304801F0F1
:100C5C001EF82D4B1B68002B4FDA2F4B1B68013BEA
:100C6C00294A13602E4B00221A7001224FF40061A6
:100C7C00274801F00CF800224FF48051244801F071
:100C8C0006F800224FF40051214801F000F834E03E
:100C9C0000224FF400611E4800F0F9FF00224FF4CF
:100CAC0080511B4800F0F3FF01224FF4005118480B
:100CBC0000F0EDFF144B1B68002B20DA174B1B6860
:100CCC00013B114A1360164B01221A7000224FF49B
:100CDC0000610F4800F0DBFF01224FF480510C48FB
:100CEC0000F0D5FF00224FF40051094800F0CFFF6F
:100CFC0005E000BF04E000BF02E000BF00E000BF61
:100D0C0000BF80BD0400002008000020620000200D
:100D1C00000C01409000002088000020980000206A
:100D2C000C00002080B400AF104B1B68013B032B60
:100D3C0016D801A252F823F0550D00085B0D0008DF
:100D4C00610D0008670D0008094B1B680AE0094B90
:100D5C001B6807E0084B1B6804E0084B1B6801E0AC
:100D6C0000BF00231846BD4680BC70470000002021
:100D7C00040000209C0000208C0000209400002027
:100D8C0080B400AF104B1B68013B032B16D801A29B
:100D9C0052F823F0B10D0008B70D0008BD0D000886
:100DAC00C30D0008094B1B680AE0094B1B6807E0E0
:100DBC00084B1B6804E0084B1B6801E000BF0023D4
:100DCC001846BD4680BC704700000020080000207B
:100DDC009C0000208C0000209400002080B500AF07
:100DEC00544B1B68013B032B00F2998001A252F873
:100DFC0023F000BF110E0008290E00087F0E00081A
:100E0C00D50E000800F0FEFB0346002B00F0898095
:100E1C00FA2000F065FBFFF71BFE82E000F0F2FB0E
:100E2C000346002B7FD0C82000F05AFB4FF4807192
:100E3C00414800F044FF4FF400613F4800F03FFF91
:100E4C0000224FF400713C4800F021FF00224FF4C7
:100E5C008061394800F01BFF00224FF48051364866
:100E6C0000F015FF00224FF40051334800F00FFF43
:100E7C0059E000F0C7FB0346002B56D0C82000F009
:100E8C002FFB4FF400712C4800F019FF4FF48051E8
:100E9C00294800F014FF00224FF48071264800F01E
:100EAC00F6FE00224FF48061234800F0F0FE002291
:100EBC004FF40061204800F0EAFE00224FF400518C
:100ECC001D4800F0E4FE30E000F09CFB0346002BD4
:100EDC002DD0C82000F004FB4FF48061164800F0C0
:100EEC00EEFE4FF40051144800F0E9FE00224FF4DE
:100EFC000071114800F0CBFE00224FF480710E48B7
:100F0C0000F0C5FE00224FF480510B4800F0BFFEEC
:100F1C0000224FF40061084800F0B9FE07E000BF62
:100F2C0006E000BF04E000BF02E000BF00E000BF2D
:100F3C0000BF80BD00000020000C014080B500AF58
:100F4C00804B1B68042B00F2F68001A252F823F0B0
:100F5C00710F0008CD0F0008331000088F10000827
:100F6C00F510000801224FF48051774800F08FFEF5
:100F7C0001224FF40061744800F089FE01224FF405
:100F8C008061714800F083FE01224FF400716E48BD
:100F9C0000F07DFE00224FF480716B4800F077FE6C
:100FAC00FFF7C0FE0346694A82FB03129210DB175F
:100FBC00D31A1846FFF79CFB624B01221A60BEE065
:100FCC0001224FF48071604800F061FE01224FF461
:100FDC0080515D4800F05BFE01224FF400615A48DD
:100FEC0000F055FE01224FF48061574800F04FFE8F
:100FFC0000224FF40071544800F049FEFFF792FEB6
:10100C000146524B83FB01239A10CB17D21A13467D
:10101C009B0013445B00CA1A1046FFF769FB494B4F
:10102C0002221A608BE001224FF40071464800F056
:10103C002EFE01224FF48071434800F028FE01225D
:10104C004FF48051404800F022FE01224FF4006121
:10105C003D4800F01CFE00224FF480613A4800F03D
:10106C0016FEFFF78DFE0346384A82FB03129210E0
:10107C00DB17D31A1846FFF73BFB324B03221A60DF
:10108C005DE001224FF480612F4800F000FE012248
:10109C004FF400712C4800F0FAFD01224FF48071DE
:1010AC00294800F0F4FD01224FF48051264800F04D
:1010BC00EEFD00224FF40061234800F0E8FDFFF73D
:1010CC005FFE0146214B83FB01239A10CB17D21AEA
:1010DC0013469B0013445B00CA1A1046FFF708FB2B
:1010EC00184B04221A602AE001224FF400611648C2
:1010FC0000F0CDFD01224FF48061134800F0C7FDD4
:10110C0001224FF40071104800F0C1FD01224FF490
:10111C0080710D4800F0BBFD00224FF480510A484D
:10112C0000F0B5FD0A4B1B681846FFF7E1FA054BBA
:10113C0000221A6003E0034B00221A6000BF00BFBC
:10114C0080BD00BF64000020000801406766666631
:10115C000000002080B500AF00F098FA00F036F8DF
:10116C0000F070F800F0BAF8164801F0EDF9FFF74E
:10117C0063F9FEF7E5FF012000F0B2F9012000F061
:10118C00C3F9012000F0D4F9FFF702F800F044FA9B
:10119C000346002B04D0FFF7D1FE012000F0B4F978
:1011AC00FFF71CFEFFF7DAF800F040FA0346002BBD
:1011BC00EAD08021044800F082FD4FF4FA7000F070
:1011CC00B7F9E1E7A00000200008014080B590B01D
:1011DC0000AF07F1180328220021184601F064FD26
:1011EC003B1D00221A605A609A60DA601A61022371
:1011FC00BB610123BB621023FB6200237B6307F1FD
:10120C001803184600F074FD0346002B01D000F0C3
:10121C00D3F80F237B600023BB600023FB6000230B
:10122C003B6100237B613B1D0021184600F0E0FF71
:10123C000346002B01D000F0BFF800BF4037BD467D
:10124C0080BD000080B586B000AF07F10803002216
:10125C001A605A609A60DA603B4600221A605A6043
:10126C001D4B4FF080421A601B4B40F21F325A60EC
:10127C00194B00229A60184B0922DA60164B002297
:10128C001A61154B00229A61134801F00DF90346BF
:10129C00002B01D000F090F84FF48053BB6007F1A5
:1012AC00080319460C4801F08BFA0346002B01D0B9
:1012BC0000F082F800233B6000237B603B4619461C
:1012CC00054801F063FC0346002B01D000F074F8D4
:1012DC0000BF1837BD4680BDA000002080B586B089
:1012EC0000AF07F1080300221A605A609A60DA60B6
:1012FC00284B9B69274A43F004039361254B9B6958
:10130C0003F004037B607B68224B9B69214A43F00A
:10131C00080393611F4B9B6903F008033B603B6818
:10132C0000224DF6FF711C4800F0B1FC00224FF476
:10133C007C511A4800F0ABFC4DF6FF73BB600123E7
:10134C00FB6000233B6102237B6107F10803194614
:10135C00114800F00BFB0723BB600023FB6000234C
:10136C003B6107F1080319460C4800F0FFFA4FF4F3
:10137C007C53BB600123FB6000233B6102237B6138
:10138C0007F108031946054800F0F0FA00BF1837BA
:10139C00BD4680BD0010024000080140000C014019
:1013AC0080B582B000AF786000F0D6F8FFF78EF809
:1013BC0000BF0837BD4680BD80B400AF72B600BF19
:1013CC00FEE7000080B485B000AF154B9B69144A52
:1013DC0043F001039361124B9B6903F00103BB6063
:1013EC00BB680F4BDB690E4A43F08053D3610C4B47
:1013FC00DB6903F080537B607B680A4B5B68FB60A6
:10140C00FB6823F0E063FB60FB6843F08063FB60E8
:10141C00044AFB68536000BF1437BD4680BC70475C
:10142C00001002400000014080B584B000AF78602D
:10143C007B681B68B3F1804F13D10C4BDB690B4AF3
:10144C0043F00103D361094BDB6903F00103FB603B
:10145C00FB68002200211C2000F051FA1C2000F037
:10146C006AFA00BF1037BD4680BD00BF00100240B5
:10147C0080B400AFFEE780B400AFFEE780B400AFED
:10148C00FEE780B400AFFEE780B400AFFEE780B4A7
:10149C0000AF00BFBD4680BC704780B400AF00BF3A
:1014AC00BD4680BC704780B400AF00BFBD4680BC59
:1014BC00704780B500AF00F02FF900BF80BD000071
:1014CC0080B500AF024801F08BF800BF80BD00BFB3
:1014DC00A000002080B400AF00BFBD4680BC7047A8
:1014EC0080B483B000AF7860054A7B681360054B0D
:1014FC0000221A6000BF0C37BD4680BC704700BF8D
:10150C00700000207400002080B483B000AF7860BD
:10151C00054A7B681360054B00221A6000BF0C372C
:10152C00BD4680BC704700BF780000207C000020C6
:10153C0080B483B000AF7860054A7B681360054BBC
:10154C0000221A6000BF0C37BD4680BC704700BF3C
:10155C00800000208400002080B400AF214B1B6869
:10156C00002B0BDD1F4B1B68013B1E4A13601D4BF0
:10157C001B68002B02D11C4B01221A601B4B1B68F1
:10158C00002B0BDD194B1B68013B184A1360174BE2
:10159C001B68002B02D1164B01221A60154B1B68DD
:1015AC00002B0BDD134B1B68013B124A1360114BD4
:1015BC001B68002B02D1104B01221A600F4B1B68C9
:1015CC00002B0BDD0D4B1B68013B0C4A13600B4BC6
:1015DC001B68002B02D10A4B01221A6000BFBD46CA
:1015EC0080BC7047680000206C0000207000002058
:1015FC0074000020780000207C0000208000002077
:10160C008400002080B400AF024B1B681846BD4616
:10161C0080BC70477400002080B400AF024B1B6884
:10162C001846BD4680BC70477C00002080B400AFDB
:10163C00024B1B681846BD4680BC704784000020D6
:10164C00FFF748FF0B480C490C4A002302E0D45822
:10165C00C4500433C4188C42F9D3094A094C0023F2
:10166C0001E013600432A242FBD301F0F9FAFFF758
:10167C0071FD7047000000201C000020082D0008A0
:10168C001C000020EC000020FEE7000080B500AF3D
:10169C00084B1B68074A43F010031360032000F04B
:1016AC0023F90F2000F008F8FFF78CFE00231846F2
:1016BC0080BD00BF0020024080B582B000AF7860D2
:1016CC00124B1A68124B1B7819464FF47A73B3FB02
:1016DC00F1F3B2FBF3F3184600F03BF90346002B91
:1016EC0001D001230EE07B680F2B0AD80022796809
:1016FC004FF0FF3000F003F9064A7B6813600023BB
:10170C0000E0012318460837BD4680BD10000020BC
:10171C00180000201400002080B400AF054B1B788B
:10172C001A46054B1B681344034A136000BFBD46A1
:10173C0080BC704718000020E800002080B400AF87
:10174C00024B1B681846BD4680BC7047E800002061
:10175C0080B485B000AF78607B6803F00703FB6052
:10176C000C4BDB68BB60BA684FF6FF031340BB60E1
:10177C00FB681A02BB68134343F0BF6343F40033A6
:10178C00BB60044ABB68D36000BF1437BD4680BC45
:10179C00704700BF00ED00E080B400AF044BDB6885
:1017AC001B0A03F007031846BD4680BC704700BFF8
:1017BC0000ED00E080B483B000AF0346FB7197F9F5
:1017CC000730002B0BDBFB7903F01F02064997F95E
:1017DC0007305B09012000FA02F241F8232000BF18
:1017EC000C37BD4680BC704700E100E080B483B08C
:1017FC0000AF03463960FB7197F90730002B0ADB09
:10180C003B68DAB20C4997F907301201D2B20B449B
:10181C0083F800230AE03B68DAB20849FB7903F04D
:10182C000F03043B1201D2B20B441A7600BF0C37E3
:10183C00BD4680BC704700BF00E100E000ED00E059
:10184C0080B489B000AFF860B9607A60FB6803F0CF
:10185C000703FB61FB69C3F10703042B28BF0423B7
:10186C00BB61FB690433062B02D9FB69033B00E027
:10187C0000237B614FF0FF32BB6902FA03F3DA43BA
:10188C00BB681A407B699A404FF0FF317B6901FAC3
:10189C0003F3D9437B680B40134318462437BD46EA
:1018AC0080BC704780B582B000AF78607B68013B2C
:1018BC00B3F1807F01D301230FE00A4A7B68013B1F
:1018CC0053600F214FF0FF30FFF790FF054B0022C4
:1018DC009A60044B07221A60002318460837BD464D
:1018EC0080BD00BF10E000E080B582B000AF786032
:1018FC007868FFF72DFF00BF0837BD4680BD80B567
:10190C0086B000AF0346B9607A60FB7300237B613D
:10191C00FFF742FF78617A68B9687869FFF790FF42
:10192C00024697F90F3011461846FFF75FFF00BFCC
:10193C001837BD4680BD80B582B000AF0346FB7141
:10194C0097F907301846FFF735FF00BF0837BD463B
:10195C0080BD80B582B000AF78607868FFF7A2FFD9
:10196C00034618460837BD4680BD000080B48BB0D6
:10197C0000AF7860396000237B6200233B6248E152
:10198C0001227B6A02FA03F3FB613B681B68FA696C
:10199C001340BB61BA69FB699A4240F037813B68DE
:1019AC005B68A34A93425ED0A14A934275D8A14A80
:1019BC00934258D09F4A93426FD89F4A934252D039
:1019CC009D4A934269D89D4A93424CD09B4A93427C
:1019DC0063D89B4A934246D0994A93425DD8122BC6
:1019EC002AD8122B59D801A252F823F0731A0008E6
:1019FC004D1A00085F1A0008A11A0008A71A00085F
:101A0C00A71A0008A71A0008A71A0008A71A0008A6
:101A1C00A71A0008A71A0008A71A0008A71A000896
:101A2C00A71A0008A71A0008A71A0008A71A000886
:101A3C00551A0008691A0008824A934213D02CE008
:101A4C003B68DB683B6229E03B68DB6804333B6244
:101A5C0024E03B68DB6808333B621FE03B68DB68D3
:101A6C000C333B621AE03B689B68002B02D10423C9
:101A7C003B6213E03B689B68012B05D108233B625A
:101A8C007B68FA691A6109E008233B627B68FA6992
:101A9C005A6103E000233B6200E000BFBB69FF2BEF
:101AAC0001D87B6801E07B6804337B61BB69FF2B49
:101ABC0002D87B6A9B0002E07B6A083B9B003B617F
:101ACC007B691A680F213B6901FA03F3DB431A4067
:101ADC00396A3B6901FA03F31A437B691A603B6864
:101AEC005B6803F08053002B00F09080564B9B6991
:101AFC00554A43F001039361534B9B6903F0010377
:101B0C00BB60BB68514A7B6A9B08023352F8233096
:101B1C00FB607B6A03F003039B000F2202FA03F3C2
:101B2C00DB43FA681340FB607B68494A93420DD053
:101B3C007B68484A934207D07B68474A934201D15D
:101B4C00022304E0032302E0012300E000237A6A6D
:101B5C0002F0030292009340FA681343FB603B4986
:101B6C007B6A9B080233FA6841F823203B685B6868
:101B7C0003F48013002B06D0384B9A683749BB69A5
:101B8C0013438B6006E0354B9A68BB69DB433349E2
:101B9C0013408B603B685B6803F40013002B06D08A
:101BAC002E4BDA682D49BB691343CB6006E02B4BF7
:101BBC00DA68BB69DB4329491340CB603B685B683F
:101BCC0003F40033002B06D0244B5A682349BB691D
:101BDC0013434B6006E0214B5A68BB69DB431F493A
:101BEC0013404B603B685B6803F48033002B06D0DA
:101BFC001A4B1A681949BB6913430B6006E0174B63
:101C0C001A68BB69DB43154913400B607B6A0133CF
:101C1C007B623B681A687B6A22FA03F3002B7FF421
:101C2C00AFAE00BF00BF2C37BD4680BC704700BFB5
:101C3C0000003210000031100000221000002110B2
:101C4C0000001210000011100010024000000140B2
:101C5C0000080140000C014000100140000401404C
:101C6C0080B485B000AF78600B467B807B689A6847
:101C7C007B881340002B02D00123FB7301E000236F
:101C8C00FB73FB7B18461437BD4680BC704780B491
:101C9C0083B000AF78600B467B8013467B707B78FB
:101CAC00002B03D07A887B681A6103E07B881A04C6
:101CBC007B681A6100BF0C37BD4680BC704780B48E
:101CCC0085B000AF78600B467B807B68DB68FB607F
:101CDC007A88FB6813401A04FB68D9437B880B4055
:101CEC001A437B681A6100BF1437BD4680BC70472D
:101CFC0080B586B000AF78607B68002B01D10123E2
:101D0C006CE27B681B6803F00103002B00F08780FA
:101D1C00924B5B6803F00C03042B0CD08F4B5B686D
:101D2C0003F00C03082B12D18C4B5B6803F480334B
:101D3C00B3F5803F0BD1894B1B6803F40033002BA8
:101D4C006CD07B685B68002B68D1012346E27B6812
:101D5C005B68B3F5803F06D1804B1B687F4A43F428
:101D6C00803313602EE07B685B68002B0CD17B4BBF
:101D7C001B687A4A23F480331360784B1B68774ACC
:101D8C0023F4802313601DE07B685B68B3F5A02F00
:101D9C000CD1724B1B68714A43F4802313606F4B58
:101DAC001B686E4A43F4803313600BE06B4B1B686B
:101DBC006A4A23F480331360684B1B68674A23F428
:101DCC00802313607B685B68002B13D0FFF7B6FC95
:101DDC00386108E0FFF7B2FC02463B69D31A642B6A
:101DEC0001D90323FAE15D4B1B6803F40033002B8C
:101DFC00F0D014E0FFF7A2FC386108E0FFF79EFC7E
:101E0C0002463B69D31A642B01D90323E6E1534BF9
:101E1C001B6803F40033002BF0D100E000BF7B689B
:101E2C001B6803F00203002B63D04C4B5B6803F080
:101E3C000C03002B0BD0494B5B6803F00C03082BF5
:101E4C001CD1464B5B6803F48033002B16D1434BFB
:101E5C001B6803F00203002B05D07B681B69012B68
:101E6C0001D00123BAE13D4B1B6823F0F8027B68DB
:101E7C005B69DB00394913430B603AE07B681B69F3
:101E8C00002B20D0364B01221A60FFF757FC38612B
:101E9C0008E0FFF753FC02463B69D31A022B01D929
:101EAC0003239BE12D4B1B6803F00203002BF0D0A6
:101EBC002A4B1B6823F0F8027B685B69DB0027491F
:101ECC0013430B6015E0264B00221A60FFF736FC1B
:101EDC00386108E0FFF732FC02463B69D31A022B4B
:101EEC0001D903237AE11D4B1B6803F00203002B7D
:101EFC00F0D17B681B6803F00803002B3AD07B6899
:101F0C009B69002B19D0174B01221A60FFF716FCA6
:101F1C00386108E0FFF712FC02463B69D31A022B2A
:101F2C0001D903235AE10D4B5B6A03F00203002B2A
:101F3C00F0D0012000F09AFA1CE00A4B00221A6043
:101F4C00FFF7FCFB38610FE0FFF7F8FB02463B693B
:101F5C00D31A022B08D9032340E100BF0010024022
:101F6C0000004242800442429E4B5B6A03F0020333
:101F7C00002BE9D17B681B6803F00403002B00F0F5
:101F8C00A6800023FB75974BDB6903F08053002B75
:101F9C000DD1944BDB69934A43F08053D361914B41
:101FAC00DB6903F08053BB60BB680123FB758E4B70
:101FBC001B6803F48073002B18D18B4B1B688A4A67
:101FCC0043F480731360FFF7B9FB386108E0FFF747
:101FDC00B5FB02463B69D31A642B01D90323FDE000
:101FEC00814B1B6803F48073002BF0D07B68DB689B
:101FFC00012B06D17B4B1B6A7A4A43F00103136217
:10200C002DE07B68DB68002B0CD1764B1B6A754A84
:10201C0023F001031362734B1B6A724A23F004030F
:10202C0013621CE07B68DB68052B0CD16D4B1B6AC3
:10203C006C4A43F0040313626A4B1B6A694A43F00F
:10204C00010313620BE0674B1B6A664A23F0010322
:10205C001362644B1B6A634A23F0040313627B68AC
:10206C00DB68002B15D0FFF769FB38610AE0FFF73E
:10207C0065FB02463B69D31A41F28832934201D97F
:10208C000323ABE0574B1B6A03F00203002BEED08B
:10209C0014E0FFF753FB38610AE0FFF74FFB0246F1
:1020AC003B69D31A41F28832934201D9032395E05C
:1020BC004C4B1B6A03F00203002BEED1FB7D012B72
:1020CC0005D1484BDB69474A23F08053D3617B68C9
:1020DC00DB69002B00F08180424B5B6803F00C0342
:1020EC00082B61D07B68DB69022B46D13F4B002269
:1020FC001A60FFF723FB386108E0FFF71FFB02466D
:10210C003B69D31A022B01D9032367E0354B1B68BB
:10211C0003F00073002BF0D17B681B6AB3F5803F92
:10212C0008D1304B5B6823F400327B689B682D49E7
:10213C0013434B602B4B5B6823F474127B68196A56
:10214C007B685B6A0B43274913434B60274B012287
:10215C001A60FFF7F3FA386108E0FFF7EFFA02466E
:10216C003B69D31A022B01D9032337E01D4B1B68A3
:10217C0003F00073002BF0D02FE01C4B00221A60F0
:10218C00FFF7DCFA386108E0FFF7D8FA02463B6942
:10219C00D31A022B01D9032320E0124B1B6803F046
:1021AC000073002BF0D118E07B68DB69012B01D1A7
:1021BC00012313E00B4B5B68FB60FB6803F480327C
:1021CC007B681B6A9A4206D1FB6803F470127B6829
:1021DC005B6A9A4201D0012300E0002318461837AD
:1021EC00BD4680BD001002400070004060004242BD
:1021FC0080B584B000AF786039607B68002B01D16A
:10220C000123D0E06A4B1B6803F007033A689A423B
:10221C0010D9674B1B6823F0070265493B681343D1
:10222C000B60634B1B6803F007033A689A4201D0BA
:10223C000123B8E07B681B6803F00203002B20D05D
:10224C007B681B6803F00403002B05D0594B5B68BB
:10225C00584A43F4E06353607B681B6803F008033F
:10226C00002B05D0534B5B68524A43F460535360C8
:10227C00504B5B6823F0F0027B689B684D4913431D
:10228C004B607B681B6803F00103002B40D07B681C
:10229C005B68012B07D1474B1B6803F40033002B01
:1022AC0015D101237FE07B685B68022B07D1414B82
:1022BC001B6803F00073002B09D1012373E03D4B25
:1022CC001B6803F00203002B01D101236BE0394B97
:1022DC005B6823F003027B685B68364913434B60F1
:1022EC00FFF72CFAF8600AE0FFF728FA0246FB68C1
:1022FC00D31A41F28832934201D9032353E02D4B78
:10230C005B6803F00C027B685B689B009A42EBD124
:10231C00274B1B6803F007033A689A4210D2244BF0
:10232C001B6823F0070222493B6813430B60204BC8
:10233C001B6803F007033A689A4201D0012332E08C
:10234C007B681B6803F00403002B08D0194B5B68F7
:10235C0023F4E0627B68DB68164913434B607B68AF
:10236C001B6803F00803002B09D0124B5B6823F4A5
:10237C0060527B681B69DB000E4913434B6000F015
:10238C0021F802460B4B5B681B0903F00F030A494B
:10239C00CB5C22FA03F3094A1360094B1B681846FD
:1023AC00FFF78AF9002318461037BD4680BD00BFE1
:1023BC000020024000100240DC2C0008100000201D
:1023CC001400002080B487B000AF0023FB60002312
:1023DC00BB6000237B6100237B6000233B611E4BB1
:1023EC005B68FB60FB6803F00C03042B02D0082B2A
:1023FC0003D027E0194B3B6127E0FB689B0C03F0F3
:10240C000F03174AD35C7B60FB6803F48033002B0B
:10241C0010D0114B5B685B0C03F00103114AD35CC9
:10242C00BB607B680D4A02FB03F2BB68B2FBF3F3A3
:10243C007B6104E07B680C4A02FB03F37B617B69E4
:10244C003B6102E0054B3B6100BF3B6918461C3702
:10245C00BD4680BC704700BF0010024000127A00DD
:10246C00EC2C0008FC2C000800093D0080B485B061
:10247C0000AF78600A4B1B680A4AA2FB03235B0A75
:10248C007A6802FB03F3FB6000BFFB685A1EFA601C
:10249C00002BF9D100BF00BF1437BD4680BC70477C
:1024AC0010000020D34D621080B582B000AF786070
:1024BC007B68002B01D1012341E07B6893F83D3010
:1024CC00DBB2002B06D17B68002283F83C207868B5
:1024DC00FEF7AAFF7B68022283F83D207B681A680E
:1024EC007B6804331946104600F056FA7B680122CB
:1024FC0083F846207B68012283F83E207B6801220A
:10250C0083F83F207B68012283F840207B680122FE
:10251C0083F841207B68012283F842207B680122EA
:10252C0083F843207B68012283F844207B680122D6
:10253C0083F845207B68012283F83D200023184650
:10254C000837BD4680BD000080B485B000AF786010
:10255C007B6893F83D30DBB2012B01D0012335E0D1
:10256C007B68022283F83D207B681B68DA687B68F5
:10257C001B6842F00102DA607B681B68164A9342C2
:10258C0009D07B681B68B3F1804F04D07B681B6853
:10259C00124A934211D17B681B689B6803F00703B6
:1025AC00FB60FB68062B10D07B681B681A687B6885
:1025BC001B6842F001021A6007E07B681B681A680E
:1025CC007B681B6842F001021A600023184614371E
:1025DC00BD4680BC704700BF002C01400004004089
:1025EC0080B584B000AF78607B681B68DB68FB60EB
:1025FC007B681B681B69BB60BB6803F00203002B84
:10260C0020D0FB6803F00203002B1BD07B681B68F7
:10261C006FF002021A617B6801221A777B681B68D3
:10262C009B6903F00303002B03D0786800F098F942
:10263C0005E0786800F08BF9786800F09AF97B680F
:10264C0000221A77BB6803F00403002B20D0FB6830
:10265C0003F00403002B1BD07B681B686FF0040293
:10266C001A617B6802221A777B681B689B6903F4EA
:10267C004073002B03D0786800F072F905E078689D
:10268C0000F065F9786800F074F97B6800221A771D
:10269C00BB6803F00803002B20D0FB6803F0080391
:1026AC00002B1BD07B681B686FF008021A617B68DB
:1026BC0004221A777B681B68DB6903F00303002B89
:1026CC0003D0786800F04CF905E0786800F03FF929
:1026DC00786800F04EF97B6800221A77BB6803F02B
:1026EC001003002B20D0FB6803F01003002B1BD031
:1026FC007B681B686FF010021A617B6808221A77DE
:10270C007B681B68DB6903F44073002B03D078688B
:10271C0000F026F905E0786800F019F9786800F007
:10272C0028F97B6800221A77BB6803F00103002BA1
:10273C000CD0FB6803F00103002B07D07B681B68EF
:10274C006FF001021A617868FEF72AFEBB6803F08D
:10275C008003002B0CD0FB6803F08003002B07D008
:10276C007B681B686FF080021A61786800F06FFA62
:10277C00BB6803F04003002B0CD0FB6803F0400354
:10278C00002B07D07B681B686FF040021A617868D9
:10279C0000F0F8F8BB6803F02003002B0CD0FB68AA
:1027AC0003F02003002B07D07B681B686FF020021E
:1027BC001A61786800F042FA00BF1037BD4680BD40
:1027CC0080B584B000AF786039600023FB737B6800
:1027DC0093F83C30012B01D10223B4E07B68012239
:1027EC0083F83C207B68022283F83D207B681B68C1
:1027FC009B68BB60BB6823F07703BB60BB6823F4AA
:10280C007F43BB607B681B68BA689A603B681B6837
:10281C00B3F5005F3ED0B3F5005F00F28780B3F5EF
:10282C00805F00F08680B3F5805F7FD8702B1AD064
:10283C00702B7BD8602B50D0602B77D8502B3CD092
:10284C00502B73D8402B58D0402B6FD8302B64D0E2
:10285C00302B6BD8202B60D0202B67D8002B5CD072
:10286C00102B5AD062E07B6818683B6899683B680B
:10287C005A683B68DB6800F06AF97B681B689B68E8
:10288C00BB60BB6843F07703BB607B681B68BA68AE
:10289C009A604FE07B6818683B6899683B685A6897
:1028AC003B68DB6800F053F97B681B689A687B68AF
:1028BC001B6842F480429A603CE07B6818683B6875
:1028CC0059683B68DB681A4600F0CAF87B681B68DD
:1028DC005021184600F021F92CE07B6818683B6801
:1028EC0059683B68DB681A4600F0E8F87B681B689F
:1028FC006021184600F011F91CE07B6818683B68F1
:10290C0059683B68DB681A4600F0AAF87B681B68BC
:10291C004021184600F001F90CE07B681A683B680E
:10292C001B681946104600F0F8F803E00123FB730E
:10293C0000E000BF7B68012283F83D207B68002209
:10294C0083F83C20FB7B18461037BD4680BD80B415
:10295C0083B000AF786000BF0C37BD4680BC7047B9
:10296C0080B483B000AF786000BF0C37BD4680BC2C
:10297C00704780B483B000AF786000BF0C37BD46A1
:10298C0080BC704780B483B000AF786000BF0C3758
:10299C00BD4680BC7047000080B485B000AF786045
:1029AC0039607B681B68FB607B682B4A934207D0BD
:1029BC007B68B3F1804F03D07B68284A934208D1DF
:1029CC00FB6823F07003FB603B685B68FA68134399
:1029DC00FB607B68204A934207D07B68B3F1804F41
:1029EC0003D07B681D4A934208D1FB6823F44073E3
:1029FC00FB603B68DB68FA681343FB60FB6823F001
:102A0C0080023B685B691343FB607B68FA681A6061
:102A1C003B689A687B68DA623B681A687B689A62E2
:102A2C007B680D4A934203D13B681A697B681A6331
:102A3C007B6801225A617B681B6903F00103002B40
:102A4C0005D07B681B6923F001027B681A6100BF0B
:102A5C001437BD4680BC7047002C01400004004078
:102A6C0080B487B000AFF860B9607A60FB681B6A0D
:102A7C007B61FB681B6A23F00102FB681A62FB682E
:102A8C009B693B613B6923F0F0033B617B681B0155
:102A9C003A6913433B617B6923F00A037B617A69D2
:102AAC00BB6813437B61FB683A699A61FB687A697E
:102ABC001A6200BF1C37BD4680BC704780B487B01B
:102ACC0000AFF860B9607A60FB681B6A7B61FB68D9
:102ADC001B6A23F01002FB681A62FB689B693B615E
:102AEC003B6923F470433B617B681B033A691343D6
:102AFC003B617B6923F0A0037B61BB681B017A6996
:102B0C0013437B61FB683A699A61FB687A691A62C4
:102B1C0000BF1C37BD4680BC704780B485B000AF89
:102B2C00786039607B689B68FB60FB6823F07003FE
:102B3C00FB603A68FB68134343F00703FB607B6858
:102B4C00FA689A6000BF1437BD4680BC704780B4E9
:102B5C0087B000AFF860B9607A603B60FB689B6837
:102B6C007B617B6923F47F437B613B681A027B6842
:102B7C001A43BB6813437A6913437B61FB687A6918
:102B8C009A6000BF1C37BD4680BC704780B485B0CE
:102B9C0000AF786039607B6893F83C30012B01D131
:102BAC00022341E07B68012283F83C207B680222EF
:102BBC0083F83D207B681B685B68FB607B681B6847
:102BCC009B68BB60FB6823F07003FB603B681B6871
:102BDC00FA681343FB607B681B68FA685A607B6871
:102BEC001B68144A934209D07B681B68B3F1804F71
:102BFC0004D07B681B68104A93420CD1BB6823F04D
:102C0C008003BB603B685B68BA681343BB607B683E
:102C1C001B68BA689A607B68012283F83D207B6848
:102C2C00002283F83C20002318461437BD4680BC94
:102C3C00704700BF002C01400004004080B483B0FA
:102C4C0000AF786000BF0C37BD4680BC704780B4C5
:102C5C0083B000AF786000BF0C37BD4680BC7047B6
:102C6C0070B500260C4D0D4C641BA410A64209D166
:102C7C0000F022F800260A4D0A4C641BA410A64250
:102C8C0005D170BD55F8043B98470136EEE755F871
:102C9C00043B98470136F2E7002D0008002D000890
:102CAC00002D0008042D000803460244934200D175
:102CBC00704703F8011BF9E7F8B500BFF8BC08BC76
:102CCC009E467047F8B500BFF8BC08BC9E467047DE
:102CDC0000000000000000000102030406070809C0
:102CEC0002030405060708090A0B0C0D0E0F101041
:042CFC0001020000D1
:042D00003101000895
:042D04000D010008B5
:102D0800010000001E000000190000000200000081
:0C2D180000127A00100000000100000012
:040000050800164D8C
:00000001FF
